:020000040800F2
:10000000F8050020490100084311000851100008BC
:1000100041110008DF030008D514000800000000AB
:10002000000000000000000000000000C5110008F2
:10003000E10300080000000045110008C911000894
:100040006301000863010008630100086301000800
:1000500063010008630100086301000863010008F0
:1000600063010008630100086301000863010008E0
:1000700063010008630100086301000863010008D0
:1000800063010008630100086301000863010008C0
:1000900063010008630100086301000863010008B0
:1000A00063010008630100086301000863010008A0
:1000B0006301000863010008630100086301000890
:1000C0006301000863010008630100086301000880
:1000D00063010008C91400086301000863010008F7
:1000E0006301000863010008630100086301000860
:1000F0006301000863010008630100086301000850
:10010000630100086301000863010008630100083F
:10011000630100086301000863010008630100082F
:10012000630100086301000863010008630100081F
:10013000DFF810D000F016F900480047A5170008B6
:10014000AFF30080F80500200648804706480047C6
:10015000FEE7FEE7FEE7FEE7FEE7FEE7FEE7FEE777
:10016000FEE7FEE7EF12000831010008D2B201E01D
:1001700000F8012B491EFBD270470022F6E710B5AC
:1001800013460A4604461946FFF7F0FF204610BD05
:10019000F0B480EA0102D40F4200B2EB410F02D268
:1001A0000246084611464A0042D0C30DDDB2C1F3F3
:1001B000C752AD1A202D35DAC1F3160141F4000201
:1001C00004B15242C5F1200602FA06F12A41104458
:1001D000B3EBD05F23D0C4B1012DA0EBC35009DC39
:1001E000F0BC4FF0004202EAC352DBB200F500005F
:1001F00000F08AB8400000F1807000EBC350A0F11D
:10020000807040EAD170490009E0490841EAC071B4
:10021000A0EBC35000F50000400800EBC350F0BC59
:1002200000F069B86142012202EB4101001BF6E7D0
:10023000F0BC704781F00041AAE780F00040A7E7DA
:1002400030B480EA010202F0004530F0004221F0B3
:10025000004013D090B1C30DD40DC2F31601C0F30A
:100260001600E41A41F4000140F400027D3491428A
:1002700001D3641C00E04900002C02DA30BC0020ED
:1002800070474FF400000023914201D3891A0343C1
:1002900040084FEA4101F7D151B1914202D14FF0EC
:1002A000004105E002D24FF0010101E06FF00101D1
:1002B00003EBC450284430BC00F01DB8C10F80EAE5
:1002C000E0700844CA079623002100F01DB820F012
:1002D0000040C10DC0F3160040F400007F2901DA90
:1002E00000207047962903DCC1F19601C840704791
:1002F0009639884070470029A8BF7047401C4900C4
:1003000008BF20F00100704710B4B0FA80FC00FA7A
:100310000CF050EA010404BF10BC704749B1CCF1A5
:10032000200421FA04F411FA0CF118BF0121214331
:100330000843A3EB0C01CB1D4FEA00614FEA1020EC
:1003400042BF002010BC704700EBC350104400298E
:10035000A4BF10BC7047401C490008BF20F001003A
:1003600010BC7047064C074D06E0E06840F0010302
:1003700094E8070098471034AC42F6D3FFF7DCFE50
:1003800088180008A818000870B58C1810F8015BD0
:1003900015F0070301D110F8013B2A1106D110F81E
:1003A000012B03E010F8016B01F8016B5B1EF9D122
:1003B0002B0705D40023521E0DD401F8013BFAE7A8
:1003C00010F8013BCB1A921C03E013F8015B01F813
:1003D000015B521EF9D5A142D8D3002070BDFEE7C3
:1003E000704772B6FEE710B590F82110002202297E
:1003F00005D00421816380F82020012010BD016810
:100400000B6823F00E030B6001680B6823F00103F7
:100410000B6090F84030C46B012101FA03F3636074
:1004200080F8211080F82020104610BD10B590F8FB
:1004300021100024022903D00421816301243DE01E
:1004400001680A6822F00E020A6001680A6822F058
:1004500001020A601A4A0168914201D1012121E09A
:10046000174A1432914201D110211BE0144A28325C
:10047000914201D1891515E0114A3C32914201D1D6
:1004800089140FE00E4A5032914202D14FF480316C
:1004900008E00B4A6432914202D14FF4801101E02E
:1004A0004FF08071064A083A5160012180F821100E
:1004B000002180F82010416B01B18847204610BD13
:1004C0000800024070B5044600F0F8F80546601CCC
:1004D00002D004480078044400F0F0F8401BA04229
:1004E000FAD370BD9C0100202DE9F84FDFF89C91F4
:1004F0000024A9F1040B23460F2709F1040AABF1EC
:10050000040EBBE00125A5402A40AA4276D1DFF8BF
:1005100080C14E68A6EB0C0866452BD00DDC032E7F
:1005200034D005DC36B3012E19D0022E2FD11BE0BA
:10053000112E16D0122E2AD119E0B8F5881F19D025
:1005400006DCB8F5803F15D0B8F5801F1FD111E04B
:10055000B8F5001F0ED0B8F5041F18D10AE0CB681B
:1005600015E0CB681B1D12E0CB6808330FE0CB68A9
:100570000C330CE08B682BB1012B4FF0080303D038
:10058000456104E0042302E0056100E00023FF2A46
:1005900001D8064601E000F104064FEA840501D9BE
:1005A000A5F12005D6F8008007FA05FC28EA0C081A
:1005B00003FA05F548EA0508C6F800804D68ED0025
:1005C0005BD5344DAE6946F00106AE61AD6924F0ED
:1005D000030605F0010500952F4D06EB050CDCF830
:1005E0000850A607360F07FA06F825EA0805DFF8CF
:1005F000AC80404503D14FF0000810E03DE0DFF84B
:10060000A080404502D14FF0010808E0DFF8948057
:10061000404502D14FF0020801E04FF0030808FA0C
:1006200006F848EA0508CCF808804D68D9F800605B
:10063000ED024D4601D5164300E096432E604D680D
:10064000DAF80060AD02554601D5164300E0964346
:100650002E604D68DBF80060AD035D4601D51643A2
:1006600000E096432E604D68DEF80060ED037546AD
:1006700001D5164300E096432E60641C0A6832FAE6
:1006800004F57FF43FAFBDE8F88F00000804014097
:10069000000011100010024000000140000801405D
:1006A000000C0140001001408068084000D001208B
:1006B00070470AB1016170470904FBE7014880688F
:1006C000704700009C0100200248816802781144B4
:1006D000816070479C010020074810B5016841F017
:1006E00010010160032000F075F80F2000F006F8FB
:1006F00000F024F8002010BD0020024070B50D4D20
:1007000004464FF47A712878B1FBF0F00A49096881
:10071000B1FBF0F000F0DCFA48B9102C07D200224F
:100720002146501E00F036F800206C6070BD01209C
:1007300070BD00009C010020A80100200C4808B5F5
:10074000816941F001018161816901F0010100913C
:10075000C16941F08051C161C06900F080500090D2
:100760000448416821F0E06141F08061416008BDCA
:100770000010024000000140002809DB00F01F02C9
:10078000012191404009800000F1E020C0F80011F3
:1007900070470000F0B40E4B1B680C46C3F30223F5
:1007A000C3F10705042D00D90425191D072901D21D
:1007B000002300E0DB1E012606FA05F1491E214058
:1007C00099409E40761E16403143F0BC00F09ABE20
:1007D0000CED00E0064900F0070208684FF6FF0341
:1007E000184040EA0220034A1043086070470000A6
:1007F0000CED00E00000FA052DE9F0470F4605007A
:1008000061D0434E306800F00700B84209D230682A
:1008100020F0070038433060306800F00700B8422D
:1008200051D128683B4C810712D5400703D5606839
:1008300040F4E06060602878000703D5606840F409
:10084000605060606068A96820F0F0000843606054
:100850002878C00728D06868012810D021680228AD
:1008600010D0890700292EDA616821F003010143C5
:100870006160FFF723FF804641F288390DE021686F
:100880008903EFE78901EDE7FFF718FFA0EB080107
:10089000494502D90320BDE8F0876068696800F027
:1008A0000C00B0EB810FEFD1306800F00700B842C8
:1008B0000BD9306820F0070038433060306800F012
:1008C0000700B84201D00120E5E72878400705D5A8
:1008D0006068E96820F4E0600843606028780007F9
:1008E00006D56068296920F4605040EAC100606064
:1008F00000F038F86168084AC1F30311515CC84040
:100900000649086006480068FFF7F8FE0020C2E7C5
:1009100000200240001002406E180008A8010020CC
:10092000A00100200448054900684968044AC1F351
:100930000221515CC8407047A8010020001002400D
:100940007E1800080448054900684968044AC1F354
:10095000C221515CC8407047A8010020001002402D
:100960007E1800080E4A51680E4801F00C03042B53
:1009700011D0082B0FD10C48C1F38343C903C05CCD
:100980000AD55168084AC1F34041921E515C054A9C
:100990005043B0FBF1F070470449484370470000F2
:1009A0000010024000127A005E18000800093D00A5
:1009B0002DE9F84F040070D02078C04DC00749D011
:1009C0006868C0F38100012807D06868C0F381001F
:1009D000022809D16868C00306D52868800339D584
:1009E00060680028E7D035E06068B0F5803F0BD044
:1009F00010B1B0F5A02F11D0286820F48030286005
:100A0000286820F4802002E0286840F480302860C4
:100A1000606890B1FFF752FE06460AE0286840F48D
:100A200080202860F0E700BFFFF748FE801B6428A5
:100A300073D828688003F7D50CE0FFF73FFE064621
:100A400005E000BFFFF73AFE801B6428F0D8286855
:100A50008003F7D420789A4E80074FF001094FF0B9
:100A6000000839D5686810F00C0F07D06868C0F32B
:100A70008100022809D16868C00306D4286880076D
:100A800014D52069012808D110E02069B0B1C6F85A
:100A90000090FFF713FE074605E00AE1FFF70EFEA0
:100AA000C01B0228C4D828688007F7D52868616968
:100AB00020F0F80040EAC10028600DE0C6F8008090
:100AC000FFF7FCFD074604E0FFF7F8FDC01B022816
:100AD00023D828688007F7D4207800072CD57948D8
:100AE000A169D9B1C0F80090FFF7E8FD074604E01E
:100AF000FFF7E4FDC01B02280FD8686A8007F7D50E
:100B000071484FF4FA510068B0FBF1F0009000BF5B
:100B10000098411E0091FAD20EE080E0C0F80080FB
:100B2000FFF7CCFD074604E0FFF7C8FDC01B022815
:100B300075D8686A8007F7D42078400760D5E869DF
:100B40000027C00008D4E86940F08050E861E869F7
:100B5000012700F0805000905C480168C90513D45B
:100B60000168834641F480710160FFF7A7FD82466A
:100B700006E000BFFFF7A2FDA0EB0A0064284ED8F4
:100B8000DBF80000C005F5D5E06801280AD008B1FF
:100B9000052813D0286A20F001002862286A20F076
:100BA000040002E0286A40F001002862E06841F297
:100BB000883B98B1FFF782FD82460BE0286A40F03F
:100BC00004002862EEE700BFFFF778FDA0EB0A0102
:100BD00059455AD8286A8007F6D50CE0FFF76EFD14
:100BE000824605E0FFF76AFDA0EB0A0159454CD8A3
:100BF000286A8007F6D41FB1E86920F08050E861C8
:100C0000E06988B36968C1F38101022944D00228F0
:100C1000C6F8608004D0FFF751FD044638E034E0A8
:100C2000FFF74CFD074604E0FFF748FDC01B022814
:100C30002BD828688001F7D4206AB0F5803F05D111
:100C40006868A16820F4003008436860D4E90801AE
:100C50000843696821F4741108436860C6F860901D
:100C6000FFF72CFD044606E025E000BFFFF726FD58
:100C7000001B022809D828688001F7D51BE000BFB7
:100C8000FFF71CFD001B022802D90320BDE8F88FE6
:100C900028688001F4D40EE00128F7D06868226A41
:100CA00000F48031914204D1616A00F470108842EE
:100CB00001D00120EAE70020E8E700000010024030
:100CC0000000424280044242A8010020007000401F
:100CD00010B5401EB0F1807F01D3012010BD4FF050
:100CE000E02460610F21601700F00CFC0020A0617F
:100CF00007202061002010BD70477047F8B50168DB
:100D000004460868CA684B6910F00F0F4FF00005E1
:100D100059D003F0010602F49077374365D0C1073C
:100D200005D0D10503D5616C41F001016164410733
:100D300005D5D90703D0616C41F0020161648107D8
:100D400005D5D90703D0616C41F004016164010746
:100D500007D502F02001314303D0616C41F0080156
:100D60006164616C00293AD0800604D5900602D5F2
:100D7000204600F0ECFA20684069616CC0F38010F6
:100D8000090700D460B3204600F0BAFA2068406931
:100D9000400621D52068143050E8001F21F04001A2
:100DA00040E80012002AF5D1E06BA8B16D4941631B
:100DB000E06BFFF73BFB002811D0E06B416B01B00B
:100DC000BDE8F040084783060FD593060DD52046B1
:100DD000BDE8F84000F0BBBA2046FFF78EFFF8BD33
:100DE0002046FFF78AFF6564F8BD266B2023012E9D
:100DF0007CD1C6067AD5D60678D5086848680090B2
:100E000048694FF00206400640D5E16B086840682B
:100E10000004000CE8D0A28D8242E5D9E085886903
:100E200020282DD020680C3050E8001F21F480715C
:100E300040E80012002AF5D12068143050E8001F65
:100E400021F0010140E80012002AF5D12068143099
:100E500050E8001F21F0400140E80012002AF5D1BF
:100E600084F84230256320680C3050E8001F21F0E0
:100E7000100140E80012002AF5D1E06BFFF7B3FA49
:100E80006663A08DE18D401A81B22AE0A08DE18DCC
:100E9000401A81B2E08D0028A6D00029A4D0226893
:100EA0000C3252E8000F20F4907042E80007002F47
:100EB000F5D12068143050E8002F22F0010240E8FC
:100EC0000027002FF5D184F84230256320680C30CC
:100ED00050E8002F22F0100240E80023002BF5D14B
:100EE00066632046FFF708FFF8BDFFE705062BD530
:100EF000150629D594F841002128F5D1A068B0F550
:100F0000805F01D12069B0B1206A411C2162216853
:100F100000784860E08C401E0004000CE084E3D1BF
:100F20002068C16821F08001C1602068C16841F07B
:100F30004001C160D8E7206A0088C0F3080048601B
:100F4000206A801C2062E5E74006CDD55006CBD54F
:100F5000CA68204622F04002CA6084F8413000F09E
:100F600076F8C1E7F112000870B5040004D094F8D7
:100F70004100002510B106E0012070BD84F840500A
:100F8000204600F023F8242084F841002068C1683E
:100F900021F40051C160204600F03AFA206801694E
:100FA00021F4904101612068416921F02A014161E9
:100FB0002068C16841F40051C1606564202084F854
:100FC000410084F842006563002070BD30B585B0F3
:100FD0000024009401940294039400681849884204
:100FE0002CD11848816941F480418161816901F403
:100FF00080410491816941F0040181618069124D51
:1010000000F0040004904FF4007000900220019062
:101010000320039069462846FFF766FA2815CDE9B4
:101020000004694628460294FFF75EFA0022114642
:101030002520FFF7AFFB2520FFF79EFB05B030BD55
:10104000003801400010024000080140704770471E
:10105000FEE700002DE9F04186B000242748009407
:10106000019402940394816941F0200181618169B6
:1010700001F020010491816941F0040181618169DD
:1010800001F004010491816941F0080181618069E6
:101090001B4F00F0080004900022FF213846FFF7A4
:1010A00008FBDFF86080002240F6B3714046FFF78E
:1010B00000FB012211034046FFF7FBFAFF20012548
:1010C0000226CDE90005CDE9024669463846FFF71C
:1010D0000BFA41F6B370CDE90005CDE90246694649
:1010E0004046FFF701FA68038DE831006946404643
:1010F000FFF7FAF906B0BDE8F081000000100240E9
:1011000000080140000C01400C4810B50A4901607C
:101110004FF4E1314160002181600C22C160C0E9DF
:1011200004128161C161FFF71FFF002803D0BDE8F1
:101130001040FFF756B910BD00380140AC01002047
:10114000FEE7FEE7704700002DE9F04700250A2082
:10115000FFF7B8F91A4C4FF4805800224146204658
:10116000FFF7A7FA671439462046FFF79DFA0028D3
:10117000F9D1B94600264746012239462046FFF7F5
:1011800098FA6D0049462046FFF78EFA00B16D1CB3
:10119000002239462046FFF78CFA761CF6B2182E4C
:1011A000EAD3012239462046FFF783FA85F4000589
:1011B000002239462046FFF77CFA2846BDE8F08732
:1011C000000C0140704700002DE9F04128494EF61F
:1011D000602628480B68284A5B1C00250B60B34238
:1011E00009D10D600168491C01603C2903D10560EB
:1011F0001168491C1160214C4FF4FA732168491C95
:101200002160994205D11E4925600F6897B10027DA
:101210000F60E168491CE160994205D11949E56018
:101220000B684BB100230B606168491C61600229A7
:1012300004D00AE00127EBE70123F4E7008881B23C
:10124000108880B200F00EFA65600F48016801292D
:1012500009D1A168491CA160B14204D1A5600B4924
:10126000056001200860BDE8F041FFF72DBA0000DD
:1012700008000020100000200C0000208C0100203D
:101280001400002024000020180000201C00002072
:1012900030B58FB028216846FEF76FFF14210AA8E9
:1012A000FEF76BFF01210804CDE900100024029431
:1012B00002250491CDE907504FF4E01009906846EB
:1012C000FFF776FB08B172B6FEE70F20CDE90A05FD
:1012D0004FF48060CDE90C4002210AA80E94FFF77C
:1012E0008BFA002801D072B6FEE70FB030BD704710
:1012F00010B5406A0021C185C184FFF7FEFC10BD16
:1013000001680C3151E8002F22F4907241E800236B
:10131000002BF5D10168143151E8002F22F00102B1
:1013200041E80023002BF5D1016B012909D10168A7
:101330000C3151E8002F22F0100241E80023002B6D
:10134000F5D1202180F8421000210163704708B5D3
:1013500090F84210222901D0022008BD82684FF483
:1013600080539A4201D1016921B1816A9A421BD00E
:101370004AB10AE00268816A5268C2F308020A8030
:10138000816A891C08E0026972B10268526802F041
:101390007F020A70816A491C8162C18D491E09045D
:1013A000090CC18503D01BE002685268F1E70168AF
:1013B000CA6822F02002CA600168CA6822F48072FA
:1013C000CA6001684A6922F001024A61202180F85E
:1013D000421000214163026B012A03D0FFF736FE61
:1013E000002008BD016301680C3151E8002F22F094
:1013F000100241E80023002BF5D101680A68D206EB
:1014000002D50A6849680091818DFFF775FCE7E70E
:1014100070B5044600680169E26821F44051114347
:1014200001612169A0680843616908432168CA68AD
:1014300041F20C639A430243CA6020684169A26981
:1014400021F44071114341611E492068884202D154
:10145000FFF778FA01E0FFF765FA00EBC00101EB56
:101460000012606864218000B2FBF0F3B3FBF1F37B
:101470006FF018067343B2FBF0F5B2FBF0F605EB24
:101480008305322303EB0515B5FBF1F5B6FBF1F649
:1014900005F0F00505EB0615B2FBF0F6B2FBF0F037
:1014A000B0FBF1F06FF01802504306EB800003EB45
:1014B0000010B0FBF1F0216800F00F0028448860B4
:1014C00070BD0000003801400148FFF717BC000064
:1014D000AC010020FEE7000010B5FFF735FE07491C
:1014E000642348600A68824201D3101A00E0801A1F
:1014F000B0FBF3F0024A1044486010BD0000002029
:1015000030A0FEFF0907090E002804DB00F1E020EF
:1015100080F80014704700F00F0000F1E02080F820
:10152000141D704702E008C8121F08C1002AFAD132
:1015300070477047002001E001C1121F002AFBD153
:101540007047000070B5104C104D012801D0A8B1B3
:1015500007E02068012804D1012220212846FFF756
:10156000A8F80020216859B1002108430AD0284674
:10157000BDE8704000222021FFF79BB80120F1E771
:101580000121F2E770BD000024000020000C0140A2
:1015900070B50A4C002004F12405608080B205EB90
:1015A000C00155F8300089880022FFF782F8608872
:1015B000401C80B260800828F0D370BD2800002055
:1015C000F0B54FF461764FF0E0220E4F17E033464E
:1015D000984200D803469469594201EBC10114EBCB
:1015E000C10505D49169A14208DAA942FADA05E0F9
:1015F0003D449169A142FCDDA942FADCC01A0028F1
:10160000E5D1F0BD4019010070B5012827D1144C77
:101610000020251D208004F1240680B205EBC001C6
:1016200055F8300089880022FFF743F8B18F012276
:10163000B06BFFF73EF80120FEF744FF208801223F
:1016400005EBC00155F830008988FFF732F8FFF745
:101650009FFF2088401C80B220800228DDD370BD0F
:10166000280000202DE9F05F0A22B0FBF2F3B0FB66
:10167000F2FB02FB130AB1FBF2F0B1FBF2F9364CBC
:1016800002FB10180020208004F1640704F12405F7
:10169000261D80B206EBC00156F830008988002272
:1016A000FFF707F800206080208803280BD16088AE
:1016B00007EB0B1111F8102005EBC00155F83000B5
:1016C0008988FEF7F6FF208802280BD1608807EB97
:1016D0000A1111F8102005EBC00155F83000898877
:1016E000FEF7E7FF208801280BD1608807EB09117E
:1016F00011F8102005EBC00155F830008988FEF77D
:10170000D8FF208858B9608807EB081111F810201D
:1017100005EBC00155F830008988FEF7CAFF6088E4
:10172000401C80B260800828BED34FF49670FFF74B
:1017300047FF2088012206EBC00156F83000898857
:10174000FEF7B7FFFFF724FF2088401C80B22080FF
:1017500004289ED3BDE8F09F2800002010B5104C4F
:101760004FF48071012810D0022810D0032810D027
:10177000002814D100222046FEF79BFF00222046BD
:10178000BDE810408021FEF794BF0122F3E700225C
:1017900000E001222046FEF78CFF0122EFE710BD9A
:1017A000000C0140FEF798FFFFF772FDFFF752FCB7
:1017B000FFF7AAFC002210212548FEF77AFF254CEE
:1017C0004FF00008012600274FEA0705FFF784FEC7
:1017D000FEF774FD2946FEF7DBFC7F1C0546052F4E
:1017E000F4DB208980B2FFF70FFF1B492846FEF784
:1017F00027FDFEF76CFD40F6AC516061884201D9CF
:10180000032009E040F6C411884201D9022003E018
:10181000B0F57A7F09D90120FFF7A0FF0020C4F8B6
:101820000C80FFF78FFE266102E00020FFF796FF95
:101830002068072803D1606808B9206930B1E068E2
:101840000128C0D10120FFF77DFEBCE7E660F9E783
:10185000000C01400C0000200000A0400102020327
:101860000405060708090A0B0C0D0E0F10100000E6
:101870000000000000000102030406070809000040
:101880000000010203040000A81800080000002066
:10189000AC0100008803000810190008AC0100200A
:1018A0004C04000034150008C13206323B02180116
:1018B0003C0801401C190842805A0C101908115AA2
:1018C00008084A04205A4028290F29085A10085AA3
:1018D00020305A02106908293F9A010261890A8959
:1018E0000E69068930491CA930C924091234890CB3
:1018F000C960091020C946E938C9308912C91E6972
:101900007C091014E932C1291482101324F4000058
:0400000508000131BD
:00000001FF
