:020000040800F2
:10000000D805002049010008430F0008510E0008E0
:10001000410F00080B0200080D120008000000004C
:10002000000000000000000000000000470F000872
:100030000D02000800000000450F0008490F0008ED
:100040006301000863010008630100086301000800
:1000500063010008630100086301000863010008F0
:1000600063010008630100086301000863010008E0
:1000700063010008630100086301000863010008D0
:1000800063010008630100086301000863010008C0
:1000900063010008630100086301000863010008B0
:1000A00063010008630100086301000863010008A0
:1000B0006301000863010008630100086301000890
:1000C0006301000863010008630100086301000880
:1000D00063010008011200086301000863010008C1
:1000E0006301000863010008630100086301000860
:1000F0006301000863010008630100086301000850
:10010000630100086301000863010008630100083F
:10011000630100086301000863010008630100082F
:10012000630100086301000863010008630100081F
:10013000DFF810D000F02CF8004800470514000844
:10014000AFF30080D80500200648804706480047E6
:10015000FEE7FEE7FEE7FEE7FEE7FEE7FEE7FEE777
:10016000FEE7FEE72710000831010008D2B201E0E7
:1001700000F8012B491EFBD270470022F6E710B5AC
:1001800013460A4604461946FFF7F0FF204610BD05
:10019000064C074D06E0E06840F0010394E80700D4
:1001A00098471034AC42F6D3FFF7C6FF741400082A
:1001B0009414000870B58C1810F8015B15F0070353
:1001C00001D110F8013B2A1106D110F8012B03E0F0
:1001D00010F8016B01F8016B5B1EF9D12B0705D4F8
:1001E0000023521E0DD401F8013BFAE710F8013B41
:1001F000CB1A921C03E013F8015B01F8015B521E5D
:10020000F9D5A142D8D3002070BDFEE7704772B681
:10021000FEE710B590F821100022022905D0042134
:10022000816380F82020012010BD01680B6823F055
:100230000E030B6001680B6823F001030B6090F85C
:100240004030C46B012101FA03F3636080F8211090
:1002500080F82020104610BD10B590F82110002421
:10026000022903D00421816301243DE001680A686A
:1002700022F00E020A6001680A6822F001020A6098
:100280001A4A0168914201D1012121E0174A143232
:10029000914201D110211BE0144A2832914201D130
:1002A000891515E0114A3C32914201D189140FE0C1
:1002B0000E4A5032914202D14FF4803108E00B4A8D
:1002C0006432914202D14FF4801101E04FF080710D
:1002D000064A083A5160012180F82110002180F877
:1002E0002010416B01B18847204610BD0800024034
:1002F0002DE9F84FDFF89C910024A9F1040B234667
:100300000F2709F1040AABF1040EBBE00125A5405B
:100310002A40AA4276D1DFF880C14E68A6EB0C08CD
:1003200066452BD00DDC032E34D005DC36B3012E10
:1003300019D0022E2FD11BE0112E16D0122E2AD149
:1003400019E0B8F5881F19D006DCB8F5803F15D044
:10035000B8F5801F1FD111E0B8F5001F0ED0B8F519
:10036000041F18D10AE0CB6815E0CB681B1D12E012
:10037000CB6808330FE0CB680C330CE08B682BB1F3
:10038000012B4FF0080303D0456104E0042302E091
:10039000056100E00023FF2A01D8064601E000F1D4
:1003A00004064FEA840501D9A5F12005D6F800809E
:1003B00007FA05FC28EA0C0803FA05F548EA0508DF
:1003C000C6F800804D68ED005BD5344DAE6946F04F
:1003D0000106AE61AD6924F0030605F00105009544
:1003E0002F4D06EB050CDCF80850A607360F07FA70
:1003F00006F825EA0805DFF8AC80404503D14FF048
:10040000000810E03DE0DFF8A080404502D14FF049
:10041000010808E0DFF89480404502D14FF002085F
:1004200001E04FF0030808FA06F848EA0508CCF89E
:1004300008804D68D9F80060ED024D4601D516439D
:1004400000E096432E604D68DAF80060AD02554634
:1004500001D5164300E096432E604D68DBF800603E
:10046000AD035D4601D5164300E096432E604D680E
:10047000DEF80060ED03754601D5164300E09643B3
:100480002E60641C0A6832FA04F57FF43FAFBDE8C1
:10049000F88F000008040140000011100010024015
:1004A0000000014000080140000C01400010014024
:1004B0000AB1016170470904FBE700000148806848
:1004C00070470000800100200248816802781144D2
:1004D0008160704780010020074810B5016841F035
:1004E00010010160032000F075F80F2000F006F8FD
:1004F00000F024F8002010BD0020024070B50D4D22
:1005000004464FF47A712878B1FBF0F00A49096883
:10051000B1FBF0F000F0DCFA48B9102C07D2002251
:100520002146501E00F036F800206C6070BD01209E
:1005300070BD0000800100208C0100200C4808B52F
:10054000816941F001018161816901F0010100913E
:10055000C16941F08051C161C06900F080500090D4
:100560000448416821F0E06141F08061416008BDCC
:100570000010024000000140002809DB00F01F02CB
:10058000012191404009800000F1E020C0F80011F5
:1005900070470000F0B40E4B1B680C46C3F30223F7
:1005A000C3F10705042D00D90425191D072901D21F
:1005B000002300E0DB1E012606FA05F1491E21405A
:1005C00099409E40761E16403143F0BC00F01FBE9D
:1005D0000CED00E0064900F0070208684FF6FF0343
:1005E000184040EA0220034A1043086070470000A8
:1005F0000CED00E00000FA052DE9F0470F4605007C
:1006000061D0434E306800F00700B84209D230682C
:1006100020F0070038433060306800F00700B8422F
:1006200051D128683B4C810712D5400703D560683B
:1006300040F4E06060602878000703D5606840F40B
:10064000605060606068A96820F0F0000843606056
:100650002878C00728D06868012810D021680228AF
:1006600010D0890700292EDA616821F003010143C7
:100670006160FFF723FF804641F288390DE0216871
:100680008903EFE78901EDE7FFF718FFA0EB080109
:10069000494502D90320BDE8F0876068696800F029
:1006A0000C00B0EB810FEFD1306800F00700B842CA
:1006B0000BD9306820F0070038433060306800F014
:1006C0000700B84201D00120E5E72878400705D5AA
:1006D0006068E96820F4E0600843606028780007FB
:1006E00006D56068296920F4605040EAC100606066
:1006F00000F038F86168084AC1F30311515CC84042
:100700000649086006480068FFF7F8FE0020C2E7C7
:1007100000200240001002405A1400088C01002002
:10072000840100200448054900684968044AC1F36F
:100730000221515CC84070478C010020001002402B
:100740006A1400080448054900684968044AC1F36E
:10075000C221515CC84070478C010020001002404B
:100760006A1400080E4A51680E4801F00C03042B6D
:1007700011D0082B0FD10C48C1F38343C903C05CCF
:100780000AD55168084AC1F34041921E515C054A9E
:100790005043B0FBF1F070470449484370470000F4
:1007A0000010024000127A004A14000800093D00BF
:1007B0002DE9F84F040070D02078C04DC00749D013
:1007C0006868C0F38100012807D06868C0F3810021
:1007D000022809D16868C00306D52868800339D586
:1007E00060680028E7D035E06068B0F5803F0BD046
:1007F00010B1B0F5A02F11D0286820F48030286007
:10080000286820F4802002E0286840F480302860C6
:10081000606890B1FFF752FE06460AE0286840F48F
:1008200080202860F0E700BFFFF748FE801B6428A7
:1008300073D828688003F7D50CE0FFF73FFE064623
:1008400005E000BFFFF73AFE801B6428F0D8286857
:100850008003F7D420789A4E80074FF001094FF0BB
:10086000000839D5686810F00C0F07D06868C0F32D
:100870008100022809D16868C00306D4286880076F
:1008800014D52069012808D110E02069B0B1C6F85C
:100890000090FFF713FE074605E00AE1FFF70EFEA2
:1008A000C01B0228C4D828688007F7D5286861696A
:1008B00020F0F80040EAC10028600DE0C6F8008092
:1008C000FFF7FCFD074604E0FFF7F8FDC01B022818
:1008D00023D828688007F7D4207800072CD57948DA
:1008E000A169D9B1C0F80090FFF7E8FD074604E020
:1008F000FFF7E4FDC01B02280FD8686A8007F7D510
:1009000071484FF4FA510068B0FBF1F0009000BF5D
:100910000098411E0091FAD20EE080E0C0F80080FD
:10092000FFF7CCFD074604E0FFF7C8FDC01B022817
:1009300075D8686A8007F7D42078400760D5E869E1
:100940000027C00008D4E86940F08050E861E869F9
:10095000012700F0805000905C480168C90513D45D
:100960000168834641F480710160FFF7A7FD82466C
:1009700006E000BFFFF7A2FDA0EB0A0064284ED8F6
:10098000DBF80000C005F5D5E06801280AD008B101
:10099000052813D0286A20F001002862286A20F078
:1009A000040002E0286A40F001002862E06841F299
:1009B000883B98B1FFF782FD82460BE0286A40F041
:1009C00004002862EEE700BFFFF778FDA0EB0A0104
:1009D00059455AD8286A8007F6D50CE0FFF76EFD16
:1009E000824605E0FFF76AFDA0EB0A0159454CD8A5
:1009F000286A8007F6D41FB1E86920F08050E861CA
:100A0000E06988B36968C1F38101022944D00228F2
:100A1000C6F8608004D0FFF751FD044638E034E0AA
:100A2000FFF74CFD074604E0FFF748FDC01B022816
:100A30002BD828688001F7D4206AB0F5803F05D113
:100A40006868A16820F4003008436860D4E90801B0
:100A50000843696821F4741108436860C6F860901F
:100A6000FFF72CFD044606E025E000BFFFF726FD5A
:100A7000001B022809D828688001F7D51BE000BFB9
:100A8000FFF71CFD001B022802D90320BDE8F88FE8
:100A900028688001F4D40EE00128F7D06868226A43
:100AA00000F48031914204D1616A00F470108842F0
:100AB00001D00120EAE70020E8E700000010024032
:100AC00000004242800442428C010020007000403D
:100AD00010B5401EB0F1807F01D3012010BD4FF052
:100AE000E02460610F21601700F091FB0020A061FD
:100AF00007202061002010BD70477047F8B50168DD
:100B000004460868CA684B6910F00F0F4FF00005E3
:100B100059D003F0010602F49077374365D0C1073E
:100B200005D0D10503D5616C41F001016164410735
:100B300005D5D90703D0616C41F0020161648107DA
:100B400005D5D90703D0616C41F004016164010748
:100B500007D502F02001314303D0616C41F0080158
:100B60006164616C00293AD0800604D5900602D5F4
:100B7000204600F088FA20684069616CC0F380105C
:100B8000090700D460B3204600F056FA2068406997
:100B9000400621D52068143050E8001F21F04001A4
:100BA00040E80012002AF5D1E06BA8B16D4941631D
:100BB000E06BFFF751FB002811D0E06B416B01B0F7
:100BC000BDE8F040084783060FD593060DD52046B3
:100BD000BDE8F84000F057BA2046FFF78EFFF8BD99
:100BE0002046FFF78AFF6564F8BD266B2023012E9F
:100BF0007CD1C6067AD5D60678D5086848680090B4
:100C000048694FF00206400640D5E16B086840682D
:100C10000004000CE8D0A28D8242E5D9E085886905
:100C200020282DD020680C3050E8001F21F480715E
:100C300040E80012002AF5D12068143050E8001F67
:100C400021F0010140E80012002AF5D1206814309B
:100C500050E8001F21F0400140E80012002AF5D1C1
:100C600084F84230256320680C3050E8001F21F0E2
:100C7000100140E80012002AF5D1E06BFFF7C9FA35
:100C80006663A08DE18D401A81B22AE0A08DE18DCE
:100C9000401A81B2E08D0028A6D00029A4D0226895
:100CA0000C3252E8000F20F4907042E80007002F49
:100CB000F5D12068143050E8002F22F0010240E8FE
:100CC0000027002FF5D184F84230256320680C30CE
:100CD00050E8002F22F0100240E80023002BF5D14D
:100CE00066632046FFF708FFF8BDFFE705062BD532
:100CF000150629D594F841002128F5D1A068B0F552
:100D0000805F01D12069B0B1206A411C2162216855
:100D100000784860E08C401E0004000CE084E3D1C1
:100D20002068C16821F08001C1602068C16841F07D
:100D30004001C160D8E7206A0088C0F3080048601D
:100D4000206A801C2062E5E74006CDD55006CBD551
:100D5000CA68204622F04002CA6084F8413000F0A0
:100D600076F8C1E72910000870B5040004D094F8A3
:100D70004100002510B106E0012070BD84F840500C
:100D8000204600F023F8242084F841002068C16840
:100D900021F40051C160204600F0D6F920680169B5
:100DA00021F4904101612068416921F02A014161EB
:100DB0002068C16841F40051C1606564202084F856
:100DC000410084F842006563002070BD30B585B0F5
:100DD0000024009401940294039400681849884206
:100DE0002CD11848816941F480418161816901F405
:100DF00080410491816941F0040181618069124D53
:100E000000F0040004904FF4007000900220019064
:100E10000320039069462846FFF76AFA2815CDE9B2
:100E20000004694628460294FFF762FA0022114640
:100E30002520FFF7AFFB2520FFF79EFB05B030BD57
:100E40000038014000100240000801407047704720
:100E5000FEE700002DE9F04186B000242748009409
:100E6000019402940394816941F0200181618169B8
:100E700001F020010491816941F0040181618169DF
:100E800001F004010491816941F0080181618069E8
:100E90001B4F00F0080004900022FF213846FFF7A6
:100EA00007FBDFF86080002240F683714046FFF7C1
:100EB000FFFA012211034046FFF7FAFAFF2001254D
:100EC0000226CDE90005CDE9024669463846FFF71E
:100ED0000FFA41F68370CDE90005CDE90246694677
:100EE0004046FFF705FA68038DE831006946404641
:100EF000FFF7FEF906B0BDE8F081000000100240E7
:100F000000080140000C01400C4810B50A4901607E
:100F10004FF4E1314160002181600C22C160C0E9E1
:100F200004128161C161FFF71FFF002803D0BDE8F3
:100F30001040FFF76CB910BD00380140900100204F
:100F4000FEE7FEE77047704770B51A4900231A485C
:100F50000C681A4A641CA4F530650C60B83D09D1D0
:100F60000B600168491C0160032903D1036011680B
:100F7000491C116012490C68641C0C60B4F5FA7FBE
:100F800005D10B600F4B1C683CB100241C604B6802
:100F90005B1C4B600A2B02D007E00124F6E70088B7
:100FA00081B2108880B200F08DF9BDE87040FFF783
:100FB0008BBA000000000020080000200400002080
:100FC000780100200C00002030B58FB02821684641
:100FD000FFF7D3F814210AA8FFF7CFF8012108047E
:100FE000CDE900100024029402250491CDE90750B8
:100FF0004FF4E01009906846FFF7DAFB08B172B6CB
:10100000FEE70F20CDE90A054FF48060CDE90C40E2
:1010100002210AA80E94FFF7EFFA002801D072B659
:10102000FEE70FB030BD704710B5406A0021C185A2
:10103000C184FFF762FD10BD01680C3151E8002F3B
:1010400022F4907241E80023002BF5D1016814319D
:1010500051E8002F22F0010241E80023002BF5D1D6
:10106000016B012909D101680C3151E8002F22F0F0
:10107000100241E80023002BF5D1202180F8421016
:1010800000210163704708B590F84210222901D071
:10109000022008BD82684FF480539A4201D1016951
:1010A00021B1816A9A421BD04AB10AE00268816A82
:1010B0005268C2F308020A80816A891C08E002694A
:1010C00072B10268526802F07F020A70816A491C9C
:1010D0008162C18D491E0904090CC18503D01BE042
:1010E00002685268F1E70168CA6822F02002CA600B
:1010F0000168CA6822F48072CA6001684A6922F0F5
:1011000001024A61202180F8421000214163026BF4
:10111000012A03D0FFF79AFE002008BD0163016891
:101120000C3151E8002F22F0100241E80023002B7F
:10113000F5D101680A68D20602D50A6849680091AB
:10114000818DFFF7D9FCE7E770B5044600680169B7
:10115000E26821F44051114301612169A06808430C
:10116000616908432168CA6841F20C639A430243EB
:10117000CA6020684169A26921F44071114341614C
:101180001E492068884202D1FFF7DCFA01E0FFF730
:10119000C9FA00EBC00101EB001260686421800015
:1011A000B2FBF0F3B3FBF1F36FF018067343B2FB3D
:1011B000F0F5B2FBF0F605EB8305322303EB0515E2
:1011C000B5FBF1F5B6FBF1F605F0F00505EB0615FC
:1011D000B2FBF0F6B2FBF0F0B0FBF1F06FF01802EA
:1011E000504306EB800003EB0010B0FBF1F02168E8
:1011F00000F00F002844886070BD000000380140F6
:101200000148FFF77BBC000090010020FEE70907C2
:10121000090E002804DB00F1E02080F8001470477C
:1012200000F00F0000F1E02080F8141D704702E08C
:1012300008C8121F08C1002AFAD170477047002061
:1012400001E001C1121F002AFBD1704770B50A4CA2
:10125000002004F12405608080B205EBC00155F840
:10126000300089880022FFF723F96088401C80B293
:1012700060800828F0D370BD14000020F0B54FF452
:1012800061764FF0E0220E4F17E03346984200D8C7
:1012900003469469594201EBC10114EBC10505D421
:1012A0009169A14208DAA942FADA05E03D44916960
:1012B000A142FCDDA942FADCC01A0028E5D1F0BD4C
:1012C000401901002DE9F05F0A22B0FBF2F3B0FBF8
:1012D000F2FB02FB130AB1FBF2F0B1FBF2F9364C60
:1012E00002FB10180020208004F1640704F124059B
:1012F000261D80B206EBC00156F830008988002216
:10130000FFF7D6F800206080208803280BD1608882
:1013100007EB0B1111F8102005EBC00155F8300058
:101320008988FFF7C5F8208802280BD1608807EB71
:101330000A1111F8102005EBC00155F8300089881A
:10134000FFF7B6F8208801280BD1608807EB091158
:1013500011F8102005EBC00155F830008988FFF71F
:10136000A7F8208858B9608807EB081111F81020F9
:1013700005EBC00155F830008988FFF799F86088BF
:10138000401C80B260800828BED34FF4FA70FFF78B
:1013900075FF2088012206EBC00156F830008988CD
:1013A000FFF786F8FFF752FF2088401C80B22080AC
:1013B00004289ED3BDE8F09F1400002010B5104C07
:1013C0004FF48071012810D0022810D0032810D0CB
:1013D000002814D100222046FFF76AF80022204698
:1013E000BDE810408021FFF763B80122F3E7002237
:1013F00000E001222046FFF75BF80122EFE710BD75
:10140000000C0140FFF768F8FFF7DEFDFFF722FD53
:10141000FFF77AFD0B4C40F6B8354FF4FA664FF4FF
:101420002F772068A84201D9032008E0B04201D9F3
:10143000022004E0B84201D9012000E00020FFF7BB
:10144000BDFFEEE7100000200102020304050607BD
:1014500008090A0B0C0D0E0F101000000000000010
:101460000000010203040607080900000000010251
:101470000304000094140008000000209001000004
:10148000B4010008F814000890010020480400008E
:101490003E120008C1C2013C0801401019084280F8
:1014A0005A0C101908115A08084A04205A402829D1
:1014B0000F29085A10085A20305A02106908293F8B
:1014C0009A0102697EA980490E6906893089A88936
:1014D0000EA924091234890CC960091020C946E9F3
:1014E00038C9308912C91E697C091014E93269CCE7
:0814F00082101324F400000037
:0400000508000131BD
:00000001FF
