:0D02CC003F065B4F666D7D077F6F00FF40B2
:10028700041100000000010A0001160C01151501F8
:020297000F0056
:10009A003080197F057E0012022530800FE510702E
:1000AA00047F0180027F008F102080FD30811A7F3B
:1000BA00057E00120225308110E51070020516E552
:1000CA0010B40102050B2081FD30821A7F057E00E3
:1000DA00120225308210E51070020515E510B401F0
:1000EA000205092082FD30830F7F057E001202255A
:1000FA00308305050E2083FD3097177F057E001299
:10010A00022530970D050FE50FB40303E4F50F2020
:03011A0097FD222C
:10011D00E510705AE51720E045C287E51575F00A20
:10012D008412021BD287D290D291D2B6C290E5151D
:10013D00120215D287D290D291D2B6C291E5167520
:10014D00F00A8412021BD287D290D291D2B6C2B6D7
:10015D00E516120215D287D290D291D2B622C2875D
:0F016D00C290C291C2B6E50E9002CD93F5A022CA
:10027000C287C290C291D2A7D2A6D2A5D2A4D2A33D
:07028000D2A2D2A1D2A022FC
:0F02BD007FE87E031202251202AD12027080FB51
:0100060022D7
:1002AD00758901758C9E758A58D28CD2A9D2AF22D0
:03000B0002017C73
:10017C00C0E0C0D0758C9E758A58050AE50AC394F8
:10018C001440050517750A00E517B43C05051675EE
:10019C001700E516B43C050515751600E515B418E1
:1001AC0005050E751500E50EB40703750E00E50880
:1001BC00B40110E516B50B0BE515B50906750C0168
:0801CC00750800D0D0D0E0322C
:10024500E50C7006C284C285C286E50A7006D284B2
:10025500C285C286E50AB40106C284D285C286E596
:0B0265000AB40206C284C285D28622C1
:1002150075F00A84E5F09002CC93F5A07F027E008C
:10022500E4FDFCC3ED9FEC9E5015E4FBFA0BBB000F
:0F023500010AEB647B4A70F50DBD00010C80E4FB
:010244002297
:03000300000022D8
:1001D400D295120003C2967F007E007D007C00D27F
:1001E400AF2095FDC2AFE4FBD296780112029AC209
:1001F4009630950DEF2401FFE43EFEE43DFDE43C22
:10020400FC0BBB18E3D296ED6480FD120003C2968A
:0102140022C7
:0300000002000EED
:0C000E00787FE4F6D8FD758117020055DC
:10029A00E8600FEFC333FFEE33FEED33FDEC33FCC2
:0302AA00D8F12266
:10001A000202BDE493A3F8E493A34003F68001F23D
:10002A0008DFF48029E493A3F85407240CC8C333E7
:10003A00C4540F4420C8834004F456800146F6DFB6
:10004A00E4800B0102040810204080900287E47EBD
:10005A00019360BCA3FF543F30E509541FFEE493AB
:10006A00A360010ECF54C025E060A840B8E493A372
:10007A00FAE493A3F8E493A3C8C582C8CAC583CA9D
:10008A00F0A3C8C582C8CAC583CADFE9DEE780BE55
:010299000064
:00000001FF
