:03000000020132C8
:0C013200787FE4F6D8FD758107020179A2
:100003006100002400010001000100010001000162
:1000130000000000000000010001000000000000DB
:1000230000000000000100010000000100010000C9
:1000330000010000000100010001000100000000B8
:1000430000010000000000010001000000000001A9
:100053000001000000010000000100010000000198
:100063000001000000010000000100010001000187
:100073000001000000010001000100000000000079
:100083000000000000010001000100010001000167
:100093000001000000010001000100010000000157
:1000A3000001000000010001000100000001000147
:1000B3000001000000000000000100010001000138
:1000C3000001000000010000000000010001000128
:1000D3000000000000000001000100010001000019
:1000E3000001000000010000000000010001000108
:1000F30000010000000100000000000000010001F9
:100103000001000050001400A000A100A200A30001
:10011300A400A500A600A7540000FF3FFF06FF5B55
:0E012300FF4FFF66FF6DFF7DFF07FF7FFF6F41
:10020600AC06AD07D3ED9400EC6480948040147A7C
:10021600007B6EEB1B70011AEB4A70F7ED1D70E464
:030226001C80E158
:0102290022B2
:10022A00C287C290C291C2B6D2A7D2A6D2A5D2A480
:09023A00D2A3D2A2D2A1D2A022CB
:0B01BE00900130EBF0A3EAF0A3E9F0A1
:1001C900E4FFFEA3F0A3F0A3F0A3F0EE701CEF147C
:1001D900600E14600F1460102403700EC287800A29
:1001E900C2908006C2918002C2B690000EA3E0F5CB
:0C01F900A00FBF00010EEF64044E70CF99
:0102050022D6
:10024300900124E4F0A3740CF0A3E4F0A37422F06F
:0802530012025B12022A80FB7B
:10025B00758901758C9E758A58D28CD2A9D2AF2222
:10013E00020243E493A3F8E493A34003F68001F292
:10014E0008DFF48029E493A3F85407240CC8C333C2
:10015E00C4540F4420C8834004F456800146F6DF91
:10016E00E4800B0102040810204080900003E47E1E
:10017E00019360BCA3FF543F30E509541FFEE49386
:10018E00A360010ECF54C025E060A840B8E493A34D
:10019E00FAE493A3F8E493A3C8C582C8CAC583CA78
:1001AE00F0A3C8C582C8CAC583CADFE9DEE780BE30
:0101310000CD
:00000001FF
